:100000000C94D71B0C94081C0C94081C0C94081C12
:100010000C94081C0C94081C0C94081C0C94081CD0
:100020000C94081C0C94081C0C94081C0C94081CC0
:100030000C94081C0C94307B0C94081C0C94081C29
:100040000C94081C0C947AD30C94081C0C94081C77
:100050000C94081C0C94081C0C940DD00C94D7F72D
:100060000C94081C0C942D3C0C94573C0C94081CCC
:100070000C94081C0C94081C0C94081C0C94081C70
:100080000C9490D50C94081C0C94081C0C94081C1F
:100090000C94081C0C94081C0C94081C0C94081C50
:1000A0000C94081C0C94081C0C9462D50C94081C2D
:1000B0000C94081C0C94081C0C94081C0C9434D54B
:1000C0000C94081C0C94081C0C94081C0C94081C20
:1000D0000C94081C0C94081C0C94081C0C94081C10
:1000E0000C94081C600160018401840184015001AA
:1000F00050015001A201360136013601C89ACD9A4D
:10010000D29ADC9AE69A5F9BF09AF89A009B0A9B37
:10011000149B1E9B2D9B379B5F9B419B4B9B559B31
:1001200084EB41EA7AEAC0EB7AEA7AEA7AEA7AEA96
:100130007AEA7AEA7AEA7AEA7AEA7AEA7AEA7AEA9F
:100140007AEA7AEA7AEA7AEA7AEA7AEA7AEA7AEA8F
:100150007AEA7AEA7AEA7AEA7AEA7AEABAEB7AEA3E
:100160007AEA7AEA7AEA7AEA7AEA7AEA7AEA93EB55
:100170007AEA7AEA7AEA7AEA7AEA7AEA7AEA7AEA5F
:100180007AEA7AEAD7EB77EA98F59BF58AF58EF565
:1001900094F5D2F59FF5A3F5A9F5ADF5B1F5B7F551
:1001A000BBF5BFF5D2F5C5F5C9F5CDF5084AD73B86
:1001B0003BCE016E84BCBFFDC12F3D6C74319ABD36
:1001C00056833DDA3D00C77F11BED9E4BB4C3E915A
:1001D0006BAAAABE000000803F05A84CCDB2D44E49
:1001E000B93836A9020C50B9918688083CA6AAAA4B
:1001F0002ABE000000803F000C943CE70C9475611F
:100200000C942C7B0C9477610C948AF50C94DE652D
:100210000C94ADF50C942D9B0C946C840C942EB323
:100220000C942E7B0C9421890C940DE80C94C5F54C
:100230000C9498F50C94F1E40C94207C0C94596186
:100240000C9405670C9470310C94379B0C9403B696
:100250000C9401310C9484EB0C941E9B0C949BF534
:100260000C94B6E50C944B9B0C9493EB0D9490007E
:100270000C9485FC0C94BA8A0C9441EA0C94DFE44B
:100280000C94CDF50C9476B30C947BE60C94FAB4F4
:100290000C94D47A0C9482CC0C94BBF50C94C0EBE7
:1002A0000D9489000C94DC9A0C94BFF50C9415B94C
:1002B0000C94CD9A0C94FE7A0C94B7F50C9434B34C
:1002C0000D947B000C9428640C9483840C9402316C
:1002D0000C948EF50C94009B0C9494F50C9455841E
:1002E0000C94D29A0C94B08A0C94559B0C94F89A66
:1002F0000C94AB8A0C94419B0C942F7E0C947261ED
:100300000C9460580C94E69A0D9482000D94140499
:100310000C949FF50C94F5B40C94D7EB0C940A9BB9
:100320000C9477EA0C94149B0C94FFB40C94C89A28
:100330000C94A9F50C94A68A0C94B1F50C9404B510
:100340000C945F9B0D9496000C94BAEB0C94B58AB8
:100350000C947AEA0C94DAE90C94C9F50C943AB34B
:100360000C9403630C94D2F50C94F09A0C9407B996
:100370000C94B4E70C94A3F54E414E494E495459A0
:10038000494E46CDCCCC3D0AD7233C17B7D1387760
:10039000CC2B329595E6241FB14F0A000020410076
:1003A00000C84200401C4620BCBE4CCA1B0E5AAEC0
:1003B000C59D74434F4D4D554E49434154494F4E91
:1003C0000044525952554E004552524F5253004923
:1003D0004E464F004543484F00536C6565702E2EC6
:1003E0002E00486F6D652058592066697273740A33
:1003F00000486F6D6520585920666972737400203B
:100400005A3A200020593A200042656420583A2088
:10041000004D65736820706F696E742063616E6E45
:100420006F74206265207265736F6C7665640A0074
:10043000436C69636B20746F20726573756D652EF4
:100440002E2E004E6F206D6F76652E00456E642057
:1004500066696C65206C6973740A00426567696E31
:100460002066696C65206C6973740A00286E6F20C1
:1004700066696C6529005344207072696E74696EF8
:1004800067206279746520004E6F74205344207099
:1004900072696E74696E670A0043757272656E7474
:1004A0002066696C653A20002569730025696D2016
:1004B000256973002569682025696D202569730009
:1004C000256964202569682025696D2025697300E8
:1004D00025697920256964202569682025696D20B2
:1004E000256973005072696E742074696D653A20D5
:1004F00000D403CF03C803C103B3036F666600448F
:10050000454255473A004B494C4C45442E20004D3E
:100510003131332053006F6B00476F726F2E417281
:100520006D73204F66662E002C20002C200054484E
:1005300045524D414C5F50524F54454354494F4EE4
:10054000004155544F5245504F52545F53445F53EE
:10055000544154555300454D455247454E43595F0C
:1005600050415253455200434153455F4C4947481F
:10057000545F4252494748544E45535300544F47E5
:10058000474C455F4C494748545300534F465457D6
:100590004152455F504F574552004255494C445FC8
:1005A00050455243454E54004C4556454C494E47E4
:1005B0005F44415441005A5F50524F4245004155FB
:1005C000544F4C4556454C005052494E545F4A4F8B
:1005D000420050524F4752455353004155544F52D9
:1005E00045504F52545F54454D5000564F4C554D59
:1005F000455452494300454550524F4D00534552D2
:1006000049414C5F584F4E5F584F4646004649524D
:100610004D574152455F4E414D453A4D61726C69AF
:100620006E20312E312E39204246202847697468C9
:1006300075622920534F555243455F434F44455FF0
:1006400055524C3A68747470733A2F2F6769746806
:1006500075622E636F6D2F4D61726C696E466972A3
:100660006D776172652F4D61726C696E2050524FCB
:10067000544F434F4C5F56455253494F4E3A312EDB
:1006800030204D414348494E455F545950453A4703
:100690006F726F2E41726D73204558545255444508
:1006A000525F434F554E543A3120555549443A63B1
:1006B000656465326132662D343161322D343734F0
:1006C000382D396231322D63353563363266333633
:1006D0003766660A002F2F20004D31343520533CF9
:1006E000696E6465783E206F7574206F6620726154
:1006F0006E67652028302D31290A002054002052D1
:1007000000416363656C65726174696F6E3A205075
:10071000005741524E494E4721204C6F77205A20B6
:100720004A65726B206D6179206C65616420746F1D
:1007300020756E77616E7465642070617573657382
:100740002E0A0020466C6F773A20000001252723EF
:1007500018FFFFFFFF1F211D1CFFFFFFFF19171BC5
:100760001EFFFFFFFFFFFF0C0409FFFFFF2E2C0CF5
:10077000FFFFFF04400AFF41206F7574206F662061
:1007800072616E67650A00536572766F20003A20C9
:100790000020536572766F200050726F6265205A98
:1007A000204F66667365743A200043290A0061622F
:1007B0006C656420286D696E2074656D702000433F
:1007C0006F6C6420657874727564657320617265FE
:1007D000200020643A0020693A0020703A004E6FF1
:1007E0002063617365206C696768740A004D6573E6
:1007F0006820706F696E742063616E6E6F74206222
:1008000065207265736F6C7665640A004D34323111
:1008100020696E636F727265637420706172616DBE
:10082000657465722075736167650A0045455052AD
:100830004F4D204F4B0A003F5A206F7574206F6652
:100840002072616E676520282D323020746F20324F
:1008500030290A003A200050726F6265205A204FFA
:100860006666736574003F4B2076616C7565206F1A
:100870007574206F662072616E67652028302D3197
:1008800030292E0A00416476616E6365204B3D007D
:100890004163746976652045787472756465723A4F
:1008A0002000496E76616C696420657874727564A5
:1008B00065720A004B494C4C45442E200053544F5E
:1008C000505045442E20005072696E74657220733A
:1008D000746F707065642064756520746F20657234
:1008E000726F72732E204669782074686520657275
:1008F000726F7220616E6420757365204D393939CD
:1009000020746F20726573746172742E2028546590
:100910006D7065726174757265206973207265739C
:1009200065742E2053657420697420616674657245
:100930002072657374617274696E67290A004E6F64
:1009400020436865636B73756D2077697468206CEC
:10095000696E65206E756D6265722C204C617374D2
:10096000204C696E653A20004E6F20436865636BCA
:1009700073756D2077697468206C696E65206E757B
:100980006D6265722C204C617374204C696E653AFF
:100990002000636865636B73756D206D69736D61AD
:1009A0007463682C204C617374204C696E653A2026
:1009B000004C696E65204E756D626572206973200A
:1009C0006E6F74204C617374204C696E65204E7597
:1009D0006D6265722B312C204C617374204C696EF2
:1009E000653A20004D313130004D33310053442001
:1009F00072656164206572726F720A00446F6E6581
:100A0000207072696E74696E672066696C650A0091
:100A100020496E76616C69642065787472756465CE
:100A2000722000000040C00000A0C10000000000D3
:100A3000007A430000704300002A4324F4D430506D
:100A4000C38E20C2A24017828B7011127A910D8141
:100A50006CD90AA861E108C7586607615143061EB0
:100A60004B5D05C145A7041A411104093D98037166
:100A70003931034036DB0265339102D430540280B1
:100A80002E1D02632CEE01752AC501B028A00110AD
:100A90002781018F2564012B244B01E0223401AC16
:100AA000211F018D200D01801FFC00841EED009789
:100AB0001DDF00B81CD200E61BC600201BBC006472
:100AC0001AB200B219A8000A19A0006A189900D138
:100AD00017910040178B00B516840031167E00B3C5
:100AE0001579003A157300C7146F0058146A00EEA8
:100AF0001366008813630025135E00C7125B006C49
:100B000012570015125400C111510070114F0021ED
:100B1000114B00D61049008D1047004610440002CA
:100B2000104200C00F4000800F3E00420F3C000604
:100B30000F3B00CB0E3800930E37005C0E350027BC
:100B40000E3400F30D3200C10D3100900D30006005
:100B50000D2E00320D2D00050D2C00D90C2B00AEF2
:100B60000C2900850C29005C0C2700350C27000E91
:100B70000C2600E80B2400C40B2400A00B23007DEE
:100B80000B23005A0B2100390B2100180B2000F811
:100B90000A1F00D90A1E00BB0A1E009D0A1D008004
:100BA0000A1D00630A1C00470A1B002C0A1B0011C7
:100BB0000A1A00F7091A00DD091900C4091900AB67
:100BC000091900920917007B091800630917004CE6
:100BD00009160036091600200916000A091500F545
:100BE000081500E0081400CC081400B8081400A48C
:100BF000081400900813007D0812006B08130058B9
:100C000008120046081200340811002308110012CF
:100C100008110001081100F0071000E0071000D0D3
:100C2000071000C0071000B0070F00A107100091C7
:100C3000070E0083070F0074070F0065070E0057AB
:100C4000070E0049070E003B070D002E070E00207F
:100C5000070D0013070D0006070D00F9060C00ED47
:100C6000060D00E0060C00D4060C00C8060C00BC03
:100C7000060C00B0060C00A4060B0099060C008DB3
:100C8000060B0082060B0077060B006C060B00615A
:100C9000060A0057060B004C060A0042060A0038F6
:100CA000060A002E060A0024060A001A060A001088
:100CB00006090007060A00FD050900F4050900EB16
:100CC000050900E2050900D9050900D0050900C79A
:100CD000050900BE050900B5050800AD050800A519
:100CE0000509009C050800940508008C050800848F
:100CF0000508007C050800740508006C0507006500
:100D00000508005D050700560508004E0507004769
:100D10000507004005080038050700310507002ACF
:100D2000050700230507001C050600160507000F30
:100D30000507000805060002050700FB040600F58C
:100D4000040700EE040600E8040600E2040700DBE6
:100D5000040600D5040600CF040600C9040600C33B
:100D6000040600BD040600B7040600B1040500AC8B
:100D7000040600A6040600A00405009B04060095D6
:100D8000040500900406008A04050085040500801F
:100D90000406007A04050075040500700405006B64
:100DA00004050066040500610405005C04050057A5
:100DB000040500520405004D0405004804050043E5
:100DC0000405003E0404003A040500350405003023
:100DD0000404002C04050027040400230405001E5D
:100DE0000404001A04040016040500110404000D94
:100DF000040400090405000404040000040400FCC9
:100E0000030400F8030400F4030400F0030400ECFE
:100E1000030400E8030400E4030400E0030400DC2E
:100E2000030400D8030400D4030400D0030400CC5E
:100E3000030400C8030300C503030024F404D920FD
:100E40001BC40C5C0E9804C4095F0265077101F4B1
:100E500005F900FB04B30048048700C1036900588A
:100E600003550003034500BE023A008402310053DB
:100E7000022A002902250004022000E4011C00C807
:100E8000011900AF011700980114008401130071CB
:100E90000110006101100051010E0043010D0036E8
:100EA000010B002B010B0020010B00150109000CA8
:100EB00001090003010800FB000800F3000800EB33
:100EC000000700E4000600DE000600D8000600D29D
:100ED000000600CC000500C7000500C2000500BDEB
:100EE000000400B9000400B5000400B1000400AD26
:100EF000000400A9000400A5000300A20003009F55
:100F00000004009B0003009800030095000200937A
:100F1000000300900003008D0002008B0003008896
:100F20000002008600020084000300810002007FAE
:100F30000002007D0002007B0002007900020077C1
:100F400000010076000200740002007200010071CE
:100F50000002006F0002006D0001006C0002006AD8
:100F600000010069000200670001006600010065E1
:100F700000010064000200620001006100010060E5
:100F80000001005F0002005D0001005C0001005BE9
:100F90000001005A000100590001005800010057EB
:100FA00000010056000100550001005400010053EB
:100FB00000000053000100520001005100010050E8
:100FC0000001004F0001004E0000004E0001004DE6
:100FD0000001004C0001004B0000004B0001004AE2
:100FE00000010049000100480000004800010047DE
:100FF00000010046000000460001004500000045D9
:1010000000010044000100430000004300010042D1
:1010100000000042000100410000004100010040CA
:101020000001003F0000003F0001003E0000003EC4
:101030000001003D0000003D0001003C0000003CBC
:101040000000003C0001003B0000003B0001003AB2
:101050000000003A000100390000003900010038AA
:1010600000000038000000380001003700000037A1
:101070000001003600000036000000360001003597
:10108000000000350000003500010034000000348D
:101090000000003400010033000000330000003382
:1010A0000001003200000032000000320001003177
:1010B000000000310000003100010030000000306D
:1010C000000000300001002F0000002F0000002F62
:1010D0000000002F0001002E0000002E0000002E56
:1010E0000001002D0000002D0000002D0000002D4B
:1010F0000001002C0000002C0000002C0000002C3F
:101100000001002B0000002B0000002B0000002B32
:101110000001002A0000002A0000002A0000002A26
:10112000000100290000002900000029000000291A
:10113000000000290001002800000028000000280D
:101140000000002800000028000100270000002700
:1011500000000027000000270000002700010026F3
:1011600000000026000000260000002600000026E7
:1011700000010025000000250000002500000025DA
:1011800000000025000000250001002400000024CC
:1011900000000024000000240000002400010023BF
:1011A00000000023000000230000002300000023B3
:1011B00000000023000000230001002200000022A4
:1011C0000000002200000022000000220000002297
:1011D000000100210000002100000021000000218A
:1011E000000000210000002100000021000100207B
:1011F000000000200000002000000020000000206F
:101200000000002000000020000000200001001F5E
:101210000000001F0000001F0000001F0000001F52
:101220000000001F0000001F0001001E0000001E43
:101230000000001E0000001E000000232C0000B86B
:10124000220000561800003A0F0000B8080000B154
:10125000040000710200003E01000020746F6F2046
:101260006C6F6E6720657874727573696F6E20702D
:10127000726576656E7465640A0020636F6C642025
:10128000657874727573696F6E2070726576656EBD
:101290007465640A00436172642072656D6F7665DF
:1012A00064004361726420696E73657274656400E2
:1012B00000060900FE0701920321207FFF07FF07B8
:1012C000FF00000006000001070706020080808082
:1012D00080800080030202060105A0A00507070622
:1012E00000005050F850F850500507070600002045
:1012F00078A07028F020050707060000C0C810205D
:101300004098180507070600006090A040A8906864
:10131000020303060104C040800307070601002002
:101320004080808040200307070601008040202085
:1013300020408005050506000120A870A8200505AD
:10134000050600012020F820200203030602FFC04A
:101350004080050101060003F8020202060200C0F7
:10136000C005050506000108102040800507070696
:10137000000070888888888870030707060100408D
:10138000C040404040E00507070600007088087034
:101390008080F8050707060000F81020100808F004
:1013A00005070706000010305090F81010050707D9
:1013B000060000F880F0080888700507070600009E
:1013C000708080F0888870050707060000F8081014
:1013D0002020202005070706000070888870888874
:1013E00070050707060000708888780808700205F5
:1013F00005060200C0C000C0C00206060602FFC00B
:10140000C000C04080040707060000102040804054
:101410002010050303060002F800F8040707060180
:1014200000804020102040800507070600007088DB
:10143000081020002005070706000070880868A82B
:10144000A870050707060000708888F88888880556
:101450000707060000F08888F08888F0050707066F
:10146000000070888080808870050707060000F003
:101470008888888888F0050707060000F88080F0D3
:101480008080F8050707060000F88080F0808080E3
:10149000050707060000708880B888887005070770
:1014A000060000888888F8888888010707060200F7
:1014B000808080808080800507070600003810103B
:1014C000101090600507070600008890A0C0A0904B
:1014D00088050707060000808080808080F8050767
:1014E0000706000088D8A8888888880507070600AE
:1014F000008888C8A89888880507070600007088B3
:101500008888888870050707060000F08888F080C2
:10151000808005070706000070888888A890680505
:101520000707060000F08888F0A0908805070706E6
:101530000000788080700808F0050707060000F8B2
:1015400020202020202005070706000088888888A2
:1015500088887005070706000088888888885020DA
:101560000507070600008888888888A850050707AF
:10157000060000888850205088880507070600006C
:1015800088888850202020050707060000F80810EA
:10159000204080F8030707060100E08080808080FB
:1015A000E005050506000180402010080307070636
:1015B0000100E02020202020E00503030600042095
:1015C0005088050101060000F802020206020580AB
:1015D00040050505060000700878887805070706AD
:1015E00000008080B0C88888F005050506000070FE
:1015F00080808870050707060000080868988888BA
:10160000780505050600007088F880700507070654
:1016100000003048E0404040400506060600FF70EC
:1016200088887808700507070600008080B0C888A1
:101630008888010707060200800080808080800380
:1016400008080601FF200020202020A040040707F2
:10165000060000808090A0C0A0900307070601004C
:10166000C04040404040E0050505060000D0A8A865
:10167000A8A8050505060000B0C8888888050505E6
:1016800006000070888888700506060600FFF0884E
:1016900088F080800506060600FF788888780808AC
:1016A000050505060000B0C8808080050505060018
:1016B0000070807008F00407070600004040E0401A
:1016C00040403005050506000088888898680505B3
:1016D000050600008888885020050505060000885A
:1016E00088A8A850050505060000885020508805E8
:1016F00006060600FF88888878087005050506003C
:1017000000F8102040F80307070601002040408041
:101710004040200107070602008080808080808092
:101720000307070601008040402040408005020278
:10173000060002689000000006000053746F7720D6
:10174000424C546F756368004D3238302050302061
:10175000533930004465706C6F7920424C546F757A
:101760006368004D32383020503020533130004211
:101770004C546F7563682053656C662D54657374A3
:10178000004D323830205030205331323000526515
:1017900073657420424C546F756368004D32383065
:1017A0002050302053313630004D61696E004D318C
:1017B000303920533230300A4D33303020533434F6
:1017C0003020503230300A4D310A4D38320A473914
:1017D000322045300A473120452D393020463630F9
:1017E000300A4D33303020533434302050323030D2
:1017F0000A4D310A4D38320A4739322045300A47FE
:1018000031204531353020463230300A47342053BC
:10181000310A4D3130342053300A4D3134302053A9
:10182000300A4D3330302053343430205031303092
:10183000300A4D3131372055736572205363726918
:10184000707420446F6E65004D313930205336304E
:101850000A4732380A4732390A47342053310A4D91
:101860003530300A4D3432302053310A473420535A
:10187000310A4739310A473120452D310A47302096
:101880005A352046313630300A4739300A47312040
:10189000583020593230302046333030300A4D38FD
:1018A0003420582059205A20450A47342053310A01
:1018B0004D3130342053300A4D3134302053300A0A
:1018C0004D33303020533434302050313030300AF2
:1018D0004D313137205573657220536372697074CE
:1018E00020446F6E65004D313930205337300A4740
:1018F00032380A4732390A47342053310A4D3530DD
:10190000300A4D3432302053310A47342053310AE3
:101910004739310A473120452D310A4730205A35A1
:101920002046313630300A4739300A4731205830A6
:1019300020593230302046333030300A4D38342090
:10194000582059205A20450A47342053310A4D3136
:1019500030342053300A4D3134302053300A4D3367
:10196000303020533434302050313030300A4D3153
:101970003137205573657220536372697074204447
:101980006F6E65004D313930205338300A47323898
:101990000A4732390A47342053310A4D3530300A6C
:1019A0004D3432302053310A47342053310A4739FD
:1019B000310A473120452D310A4730205A3520461B
:1019C000313630300A4739300A47312058302059F3
:1019D0003230302046333030300A4D3834205820F1
:1019E00059205A20450A47342053310A4D313034AA
:1019F0002053300A4D3134302053300A4D333030CB
:101A000020533434302050313030300A4D313137AA
:101A100020557365722053637269707420446F6E31
:101A200065004D31303420533230300A4D38320A9F
:101A30004739322045300A4732380A0A47302058A1
:101A400031323520593132300A4730205A31303066
:101A50002046313630300A4D313039205332303063
:101A60000A4D333030205334343020503230300A75
:101A70004D310A4731204531353020463230300A69
:101A800047342053310A4739310A473120452D3137
:101A90000A4730205A352046313630300A4739302F
:101AA0000A47312058302059323030204633303008
:101AB000300A4D383420582059205A20450A4734DE
:101AC0002053310A4D3130342053300A4D313430F7
:101AD0002053300A4D3330302053343430205031CD
:101AE0003030300A4D3131372055736572205363E1
:101AF0007269707420446F6E6500426564204C65A5
:101B000076656C696E67202D20383043C2B0004284
:101B10006564204C6576656C696E67202D203730D2
:101B200043C2B000426564204C6576656C696E679F
:101B3000202D20363043C2B0004573746570732089
:101B400043616C6962726174696F6E004368616EB3
:101B500067652046696C616D656E74004D61696EE4
:101B6000005072696E742061626F72746564005017
:101B700072696E742066726F6D2053440053746FE7
:101B800070207072696E7400526573756D65207097
:101B900072696E74004E6F2053442063617264005A
:101BA0005061757365207072696E7400436F6E7456
:101BB000726F6C00507265706172650054756E656D
:101BC00000437573746F6D20436F6D6D616E647348
:101BD00000496E666F2073637265656E000E000EBD
:101BE000000E000E000E000E000E000E007FC03F23
:101BF000801F000E00040004000E001F003F807FC5
:101C0000C00E000E000E000E000E000E000E000EA4
:101C10000003F8000FFE001E0F0038070038038095
:101C2000700380700FE07007C07003807001007057
:101C300000003800003807001E0F000FFE0003F8F8
:101C40000000FE0003FF800783C00E01C00E00E00D
:101C50001C00E07F00E03E00E01C00E00800E00027
:101C600000E00001C00E01C00F078007FF0001FC6B
:101C700000FFFFFF7F80FFC0FFC0FFC07F807F802D
:101C8000FFC0FFC0FFC03F001E000C0050726F621B
:101C900065205A204F66667365740050726F6265E6
:101CA000205A204F666673657400466C6F77004655
:101CB0006C6F770046616E207370656564004661E5
:101CC0006E2073706565640042656400426564005F
:101CD0004E6F7A7A6C65004E6F7A7A6C650053703D
:101CE000656564005370656564004D61696E0057F9
:101CF000726974696E6720746F2066696C653A203A
:101D0000006F70656E206661696C65642C204669A1
:101D10006C653A20006F70656E206661696C656461
:101D20002C2046696C653A200046696C6520736515
:101D30006C65637465640A002053697A653A200013
:101D400046696C65206F70656E65643A2000206698
:101D5000696C653A2000646F696E6700667265732E
:101D600068004E6F772000454E4420535542524F35
:101D70005554494E450A002220706F73002220708E
:101D80006172656E743A2200535542524F55544960
:101D90004E452043414C4C207461726765743A2271
:101DA000004B494C4C45442E2000747279696E6793
:101DB00020746F2063616C6C207375622D67636F94
:101DC00064652066696C6573207769746820746F38
:101DD0006F206D616E79206C6576656C732E204D79
:101DE0004158206C6576656C2069733A00457272C3
:101DF0006F723A006F70656E206661696C65642C65
:101E00002046696C653A200043616E6E6F74206FE6
:101E100070656E2073756264697220006563686F17
:101E20003A00486F6D652025732573257320666918
:101E3000727374002066697273740A005A00590044
:101E40005800486F6D65200053544F505045442E44
:101E500020005072696E7465722073746F707065C3
:101E6000642064756520746F206572726F72732EC2
:101E70002046697820746865206572726F722061EF
:101E80006E6420757365204D39393920746F207266
:101E90006573746172742E202854656D706572616B
:101EA000747572652069732072657365742E205392
:101EB000657420697420616674657220726573743C
:101EC000617274696E67290A0053544F5020636130
:101ED0006C6C65642062656361757365206F662054
:101EE000424C546F756368206572726F72202D20AA
:101EF000726573746172742077697468204D393922
:101F0000390A0042696C696E656172204C657665BC
:101F10006C696E6720477269643A0A0047322F473E
:101F2000332062616420706172616D6574657273E3
:101F30000A00021FFFFFFFFFFFFF6000000000011B
:101F4000FF400000000000FF8000000000007F83D1
:101F5000CF00000C303F87FF80000C301F86798057
:101F6000000C000F8C30C7838C30E78C30CFC7CC8F
:101F700031F38C30DCECEC33B98C30D86C6C331929
:101F80008C30D06C0C33198C30D86C0C33198C30ED
:101F9000DC6C0E3B198C30CF7C079F198C30C77CD2
:101FA000038F1940000000000002600000000000E4
:101FB000061FFFFFFFFFFFF82020506C616E6E656B
:101FC0007242756666657242797465733A200020C4
:101FD00046726565204D656D6F72793A2000436FDA
:101FE0006D70696C65643A204A616E20333120322D
:101FF0003032310A00207C20417574686F723A20BB
:10200000286E6F6E652C2064656661756C74206344
:102010006F6E666967290A00323032302D31322DF9
:10202000333200204C6173742055706461746564B0
:102030003A2000312E312E392042460A004D61727D
:102040006C696E0020536F6674776172652052650B
:102050007365740A00205761746368646F67205267
:10206000657365740A002042726F776E206F757415
:102070002052657365740A002045787465726E613C
:102080006C2052657365740A00506F7765725570E5
:102090000A0073746172740A006175746F25692E89
:1020A00067006572726F722077726974696E67205B
:1020B000746F2066696C650A00456E6473746F7096
:1020C0007320256320256320256320256300205A83
:1020D0003A0020593A0020583A00656E6473746FD4
:1020E0007073206869743A2000446F6E65207361D4
:1020F00076696E672066696C652E0A004D3239007C
:1021000000060900FE000000000001090008FE00B2
:102110000005080806000040F0C888889878100577
:102120000808060000C0F88888888888F805050532
:102130000600012030F83020050808060000207055
:10214000F820202020E00509090600FF2070A8A83B
:10215000B8888870200509090600FFE080C0B0A893
:10216000283028280509090600FFF8A888888888EB
:1021700088A8F8050A0A0600FE205050505088A88A
:10218000A8887003030306000340A04025753A2584
:1021900030327500253032753A253032750025759C
:1021A0006420253032753A253032750020202020F9
:1021B0002020005A0059002020202000580009202B
:1021C000000000000000000000000000003FFFF0E1
:1021D0000000000000000000000000003800700057
:1021E000000000000000000000000030FC30000093
:1021F0000000000000000000000020FC10000000B3
:102200000000000000000000002078100000000026
:10221000000000000000000020301000000000005E
:10222000000000000000002C00D03FC000000000B3
:102230000000002082002E31D07FE000000000006E
:1022400000001041002F7BD07FE000000000000064
:10225000001041002F7BD07FE00000000000000054
:102260002082002E31D03FC000000000000000415D
:1022700004002C00D03FC0000000000000008208D5
:10228000002030107FE00000000000000082080005
:102290002078107FE00000000000000041040020D2
:1022A000FC107FE00000000000000020820030FCF5
:1022B000301F8000000000000000000000380070A7
:1022C0000F0000000000000000FFFFC03FFFF0060D
:1022D0000000000000000000FFFFC0000000000040
:1022E000000000000000000000003FFFF0000000C0
:1022F0000000000000000000003800700000000036
:1023000000000000000000003186300000000000E6
:102310000000000000000023871000000000000003
:10232000000000000000278790000000000000006F
:1023300000000000002F87D0000000000000000017
:10234000000000002F03D03FC0000000000000008C
:102350002082002030107FE000000000000000100C
:1023600041002078107FE0000000000000001041D4
:10237000002078107FE000000000000000208200B4
:102380002030103FC0000000000000004104002F7A
:1023900003D03FC0000000000000008208002F872B
:1023A000D07FE00000000000000082080027879036
:1023B0007FE0000000000000004104002387107F40
:1023C000E0000000000000002082003186301F8005
:1023D000000000000000000000003800700F000046
:1023E000000000000000FFFFC03FFFF006000000FB
:1023F0000000000000FFFFC0000000476F726F2E5A
:1024000041726D732052656164792E005072696E5D
:1024100074696E672E2E2E005072696E7420706182
:1024200075736564004578747275646572004175F2
:10243000746F20686F6D6500473238004D6F7665A8
:10244000205A004D6F76652059004D6F76652058F3
:102450000050726570617265004C6F616420736535
:102460007474696E677300526573746F7265206669
:1024700061696C736166650053746F726520736582
:102480007474696E677300416476616E6365204B96
:1024900000416476616E6365204B004D6F74696F17
:1024A0006E0054656D7065726174757265004D6182
:1024B000696E005049442D44005049442D44005059
:1024C00049442D49005049442D49005049442D505C
:1024D000005049442D5000200820466163740020BC
:1024E000082046616374002008204D6178002008B0
:1024F000204D6178002008204D696E002008204D95
:10250000696E004F6666004F6E20004175746F74EF
:10251000656D700046616E2073706565640046618C
:102520006E207370656564004265640042656400F6
:102530004E6F7A7A6C65004E6F7A7A6C6500436FE5
:102540006E74726F6C00205A3A0020593A00204392
:102550006F756E7420583A0020453A00205A3A00B0
:1025600020593A00583A003A004361703A00205A24
:1025700000205900580020204D61783A2000205A50
:1025800000205900580020204D696E3A20004F6EFF
:1025900020004F666600536F667420656E64737426
:1025A0006F70733A200020643A0020693A0020706E
:1025B0003A00496E76616C6964206578747275645E
:1025C00065720A004B64200023646566696E6520AD
:1025D00044454641554C545F004B692000236465D7
:1025E00066696E652044454641554C545F004B700A
:1025F000200023646566696E652044454641554C5C
:10260000545F00504944204175746F74756E6520A5
:1026100066696E69736865642120507574207468FA
:1026200065206C617374204B702C204B6920616EA7
:1026300064204B6420636F6E7374616E74732066E4
:10264000726F6D2062656C6F7720696E746F2043C6
:102650006F6E66696775726174696F6E2E680A00C5
:10266000504944204175746F74756E6520666169C8
:102670006C6564212074696D656F75740A0045315D
:1026800020544845524D414C2052554E41574159D6
:102690000042454420544845524D414C2052554E2D
:1026A0004157415900546865726D616C2052756ED6
:1026B000617761790045312048656174696E6720F2
:1026C0006661696C6564004265642068656174696F
:1026D0006E67206661696C65640048656174696E47
:1026E00067206661696C65640050494420417574D7
:1026F0006F74756E65206661696C65642120546530
:102700006D706572617475726520746F6F20686991
:1027100067680A00204B643A2000204B693A200089
:10272000204B703A20000A20436C61737369632068
:10273000504944200A002054753A2000204B753A35
:102740002000206D61783A2000206D696E3A2000EB
:1027500020643A200020626961733A2000504944A5
:10276000204175746F74756E65206661696C65646F
:10277000212054656D706572617475726520746F87
:102780006F20686967680A00504944204175746F7A
:1027900074756E652073746172740A005049442028
:1027A0004175746F74756E65206661696C6564212E
:1027B00020426164206578747275646572206E755C
:1027C0006D6265720A004F66660A004661646520A4
:1027D0004865696768742000426564204C657665C9
:1027E0006C696E6720004661696C656420746F20B7
:1027F000656E61626C6520426564204C6576656C2F
:10280000696E670A004F6666736574732061707045
:102810006C696564004572723A20546F6F2066617E
:10282000722100546F6F206661722066726F6D2096
:102830007265666572656E636520706F696E740A95
:102840000047340A4D3530300A4D34323020533190
:102850000A47342053310A4730205A352046313652
:1028600030300A4739300A47312058302059323049
:10287000302046333030300A47342053310A4D314E
:1028800030342053300A4D3134302053300A4D3328
:102890003030205334343020503130303000202854
:1028A00044525952554E2900473239204175746FB0
:1028B00020426564204C6576656C696E67003F2038
:1028C000284C2C522C462C4229206F7574206F66A0
:1028D00020626F756E64732E0A003F285629657258
:1028E000626F7365206C6576656C20697320696D15
:1028F000706C61757369626C652028302D34292EE7
:102900000A00426164205A2076616C75650A004EA7
:102910006F2062696C696E65617220677269640A12
:102920000046696C652064656C657465643A0044B2
:10293000656C6574696F6E206661696C65642C20D6
:1029400046696C653A200050726F74656374656403
:102950002050696E0A0020573A004520436F6F6C83
:10296000696E672E2E2E00452048656174696E677A
:102970002E2E2E0020573A0042656420636F6F6C44
:10298000696E672E2E2E0042656420686561746949
:102990006E672E2E2E004D3234004D3233202573BB
:1029A00000556E6B6E6F776E20636F6D6D616E6438
:1029B0003A20220050726F62696E67206661696C0E
:1029C00065640A0050726F62696E67206661696CA7
:1029D000656400205A3A200020593A20004265647C
:1029E00020583A200053442063617264206F6B0AC0
:1029F000006F70656E526F6F74206661696C6564FC
:102A00000A00766F6C756D652E696E69742066615B
:102A1000696C65640A00534420696E6974206661BC
:102A2000696C0A00454550524F4D206461746173D2
:102A3000697A65206572726F722E0A00290A002079
:102A400062797465733B206372632000536574740C
:102A5000696E67732053746F726564202800290AB9
:102A6000002062797465733B2063726320002073D9
:102A7000746F7265642073657474696E6773207215
:102A80006574726965766564202800202863616C2E
:102A900063756C6174656429210A0020213D200062
:102AA000454550524F4D20435243206D69736D612F
:102AB000746368202D202873746F72656429200068
:102AC0002053697A653A2000496E6465783A20009F
:102AD000204D61726C696E3D563535290A002845D6
:102AE0004550524F4D3D00454550524F4D20766563
:102AF0007273696F6E206D69736D61746368200015
:102B00004261636B0050726F6265205A204F6666A7
:102B1000736574004E65787420636F726E65720021
:102B200053746F72652073657474696E6773004CBB
:102B30006F61642073657474696E6773004C6576A9
:102B4000656C20636F726E6572730050726F6265A0
:102B5000205A204F6666736574004661646520489C
:102B600065696768740046616465204865696768DF
:102B700074004F6666004F6E2000426564204C650D
:102B800076656C696E67004C6576656C206265647D
:102B9000004732380A4732390047323900417574EC
:102BA0006F20686F6D650047323800507265706144
:102BB000726500424C546F756368004469736162CA
:102BC0006C65207374657070657273004D383400E5
:102BD000426564204C6576656C696E67004175746A
:102BE0006F20686F6D6500473238004D6F76652045
:102BF00061786973004D61696E004D6F766520588C
:102C0000004D6F76652059004D6F7665205A00455E
:102C100078747275646572004D6F766520302E3160
:102C20006D6D004D6F766520316D6D004D6F766571
:102C30002031306D6D004D6F7665206178697300CD
:102C40004578747275646572004D6F7665205A0020
:102C50004D6F76652059004D6F76652058002074C1
:102C60006F6F206C6F6E6720657874727573696F13
:102C70006E2070726576656E7465640A0020636FFD
:102C80006C6420657874727573696F6E20707265FC
:102C900076656E7465640A00627573793A207061B6
:102CA0007573656420666F7220696E7075740A00B2
:102CB000627573793A2070617573656420666F720E
:102CC00020757365720A00627573793A2070726FAD
:102CD00063657373696E670A004B494C4C45442E1B
:102CE00020004B494C4C2063617573656420627908
:102CF00020746F6F206D75636820696E61637469FD
:102D000076652074696D65202D2063757272656E1D
:102D10007420636F6D6D616E643A2000506C656164
:102D20007365207265736574005052494E54455264
:102D30002048414C544544005072696E74657220BD
:102D400068616C7465642E206B696C6C2829206343
:102D5000616C6C6564210A00656E717565756569E5
:102D60006E67202200000040C00000A0C1000000EB
:102D7000000000704200007042000080400000002F
:102D8000005761726E696E673A20486F6D696E67B1
:102D90002042756D702044697669736F72203C2003
:102DA000310A000202040000A0400000A040000020
:102DB000004000007D430000824300002A43FFFFE3
:102DC000FF7C3C3E5E2B3D3F2F5B5D3B2C2A225C13
:102DD0000070012C0190012701B0012201C0011DEA
:102DE00001F00118011002130130020E0160020906
:102DF0000190020401C002FF000003FA004003F545
:102E0000008003F000D003EB002004E6007004E132
:102E100000E004DC004005D700C005D2004006CD2C
:102E200000D006C8008007C3003008BE00F008B913
:102E300000C009B400B00AAF00B00BAA00D00CA5C6
:102E400000000EA000500F9B00C010960050129181
:102E50000000148C00C0158700B0178200B0197DE7
:102E600000D01B7800001E730040206E0090226985
:102E700000F024640040275F0090295A00E02B55A1
:102E800000102E500020304B0010324600E033413D
:102E90000090353C001037370070383200A0392DD3
:102EA00000B03A2800A03B2300603C1E00103D19F2
:102EB00000903D1400103E0F00703E0A00C03E0519
:102EC00000003F0000403FFBFF803FF6FFC03FF1A6
:102ED000FF453120544845524D414C2052554E41FA
:102EE0005741590042454420544845524D414C20D9
:102EF00052554E4157415900546865726D616C20BE
:102F000052756E61776179004531204572723A20C1
:102F10004D415854454D50004572723A204D41582C
:102F200054454D5020424544004D415854454D5064
:102F30002074726967676572656400453120457267
:102F4000723A204D494E54454D50004572723A2018
:102F50004D494E54454D5020424544004D494E5434
:102F6000454D5020747269676765726564000A4751
:102F7000342053310A4739310A473120452D310A6F
:102F80004730205A352046313630300A4739300A2A
:102F900047312058302059323030204633303030DD
:102FA0000A4D383420582059205A20450A473420E9
:102FB00053310A4D3130342053300A4D31343020F2
:102FC00053300A4D333030205334343020503130B8
:102FD000303000202F002042403A0020403A00FFCD
:102FE000FDFCFAF8F6F4F2F0EEECEAE9E7E5E3E1ED
:102FF000E0DEDCDAD9D7D5D4D2D0CFCDCBCAC8C7A2
:10300000C5C3C2C0BFBDBCBAB9B7B6B4B3B2B0AF26
:10301000ADACAAA9A8A6A5A4A2A1A09E9D9C9A9980
:10302000989795949392908F8E8D8B8A89888786B6
:1030300084838281807F7E7D7B7A797877767574D0
:10304000737271706F6E6D6C6B6A696867666564C8
:10305000636261605F5E5D5C5B5A595858575655B4
:103060005453525150504F4E4D4C4B4A4A49484789
:103070004646454443424241403F3E3E3D3C3B3B49
:103080003A39383837363535343332323130302FFB
:103090002E2E2D2C2B2B2A2929282727262525249F
:1030A000232322212120201F1E1E1D1C1C1B1B1A36
:1030B00019191818171616151514131312121111C1
:1030C000100F0F0E0E0D0D0C0C0B0A0A0909080843
:1030D0000707060605050404030302020100004871
:1030E000617264636F6465642044656661756C74C5
:1030F0002053657474696E6773204C6F61646564F6
:103100000A00F4010000F401000064000000E8037C
:1031100000000000FA430000FA430000A040000055
:10312000C8419A99A0429A99A1420000C8433333FA
:10313000CD423A0A0020286D6D290020204D3930FB
:1031400030204B004C696E65617220416476616E7F
:1031500063653A0A0020204D383531205A005A2D37
:1031600050726F6265204F6666736574002044007C
:1031700020490020204D33303420500020440020CE
:10318000490020204D3330312050005049442073F5
:10319000657474696E67733A0A0020460020420025
:1031A00020480020204D3134352053004D61746596
:1031B0007269616C206865617475702070617261FC
:1031C0006D65746572733A0A00205A00204A002027
:1031D000204732392057204900205A0020204D3402
:1031E00032302053004175746F20426564204C6575
:1031F00076656C696E673A0A00205A0020590020F3
:10320000204D323036205800486F6D65206F66665D
:103210007365743A0A00204500205A0020590020A6
:10322000580020540020530020204D3230352051CA
:103230000020453C6D61785F655F6A65726B3E009A
:1032400020583C6D61785F785F6A65726B3E2059EB
:103250003C6D61785F795F6A65726B3E205A3C6DA8
:1032600061785F7A5F6A65726B3E00416476616E79
:103270006365643A20513C6D696E5F7365676D6587
:103280006E745F74696D655F75733E20533C6D6944
:103290006E5F66656564726174653E20543C6D695D
:1032A0006E5F74726176656C5F6665656472617489
:1032B000653E0020540020520020204D3230342042
:1032C0005000416363656C65726174696F6E20289C
:1032D000756E6974732F7332293A20503C7072698D
:1032E0006E745F616363656C3E20523C72657472FC
:1032F0006163745F616363656C3E20543C7472610A
:1033000076656C5F616363656C3E0A002045002052
:103310005A0020590020204D3230312058004D6194
:1033200078696D756D20416363656C657261746960
:103330006F6E2028756E6974732F7332293A0A00F4
:10334000204500205A0020590020204D32303320E3
:1033500058004D6178696D756D20666565647261B0
:103360007465732028756E6974732F73293A0A0087
:10337000204500205A0020590020204D3932205885
:103380000053746570732070657220756E69743AAD
:103390000A0020204D3134392043203B20556E69EE
:1033A000747320696E2043656C736975730A00201D
:1033B00020473231202020203B004572726F72205E
:1033C00077726974696E6720746F20454550524F5B
:1033D0004D210A0050726F6265205A204F66667355
:1033E000657400436F6E74726F6C0043616E6E6F34
:1033F0007420656E746572207375626469723A2018
:1034000000022E2E004D61696E00486F6D696E6777
:10341000206661696C6564005452494747455245CE
:1034200044006F70656E003A20007A5F6D696E002F
:10343000795F6D696E00785F6D696E005265706FBF
:103440007274696E6720656E6473746F7020737434
:10345000617475730A0000000001000000010000A3
:103460008000555555000000400033333300AAAAB0
:103470002A004992240000002000C7711C0099997D
:103480001900D1451700555515003BB113002449CB
:10349000120011111100000010000F0F0F00E3388F
:1034A0000E0043790D00CCCC0C00C3300C00E8A218
:1034B0000B0064210B00AAAA0A00703D0A009DD8E7
:1034C0000900427B090092240900DCD308008888A7
:1034D00008001042080000000800F0C107008787BC
:1034E000070075500700711C07003EEB0600A1BCE9
:1034F00006006990060066660600703E06006118C8
:10350000060017F4050074D105005BB00500B29009
:103510000500627205005555050078390500B81E92
:103520000500050505004EEC040087D40400A1BD8C
:10353000040090A7040049920400C17D0400EE69D4
:103540000400C7560400444404005C32040008210F
:10355000040041100400000004003FF00300F8E004
:10356000030026D20300C3C30300CCB503003AA86E
:1035700003000A9B0300388E0300C08103009F757F
:103580000300D0690300505E03001D53030034485C
:103590000300913D03003333030016290300381F55
:1035A000030097150300300C0300030303000BFA1C
:1035B000020049F10200BAE802005CE002002DD8E6
:1035C00002002DD0020059C80200B0C0020031B97B
:1035D0000200DAB10200AAAA0200A0A30200BC9C69
:1035E0000200FA9502005C8F0200DF8802008282EE
:1035F0000200457C02002776020027700200436A21
:1036000002007C640200D05E02003F590200C853F1
:103610000200526573656E643A200020420020501B
:10362000006F6B0000002100240027002A002D00FD
:103630003000330001010000040107010A0100000D
:103640002200250028002B002E003100340002014A
:103650000000050108010B010000200023002600E6
:1036600029002C002F003200000100000301060198
:1036700009010505050507050808080802020202F8
:103680000A0A0808040404040101010101010101FE
:103690000303030303030303040707070C0C0C0CC9
:1036A0000C0C0C0C020202020606060606060606B2
:1036B0000B0B0B0B0B0B0B0B01021020200808103F
:1036C0002040102040800201020108040201010292
:1036D000040810204080804020100804020180046B
:1036E00002018040201008040201080402010102C6
:1036F00004081020408001020408102040800000CF
:103700000A0B02090C0D0E0807030401000000005B
:1037100000000000000000000000000000000000A9
:103720000000000000000000000012111000000066
:103730000000000000000000000000000000000089
:10374000000000006265640A002C207379737465C0
:103750006D2073746F7070656421204865617465B5
:10376000725F49443A20004265642068656174696B
:103770006E67206661696C65640048656174696E96
:1037800067206661696C6564004531204865617435
:10379000696E67206661696C65640048656174697B
:1037A0006E67206661696C65640085FC8601112482
:1037B0001FBECFEFD1E2DEBFCDBF00E00CBF13E0F4
:1037C000A0E0B2E0E0EDF3E202E00BBF02C0079040
:1037D0000D92AE37B107D9F727E1AEE7B3E001C0EC
:1037E0001D92AC34B207E1F71BE1C6EDDBE100E06E
:1037F00006C021970109802FFE010F94300EC53DB0
:10380000D10780E00807A9F70E94C3FE0D94D611E6
:103810000C9400002F923F924F925F926F927F9292
:103820008F929F92AF92BF92CF92DF92EF92FF92D0
:103830000F931F93CF93DF93CDB7DEB7E8970FB603
:10384000F894DEBF0FBECDBF41E040936E0E809175
:1038500017168D3409F4C9C3843511F40C94B72DAF
:10386000873411F00C94032E209115163091161602
:103870002C31310509F425C19CF4243031053CF488
:10388000223031050CF044C037FF28C0AAC32430D1
:10389000310509F446C02B31310509F480C0A1C3BC
:1038A0002A32310509F400C24CF42D31310509F4F6
:1038B0001FC12E31310509F41FC193C32B353105CA
:1038C00009F4B8C22C35310509F4B8C22A353105DE
:1038D00009F087C3109285030C94052E80916D0228
:1038E000882311F40C94052E8AE50E948D37082F49
:1038F00089E50E948D37182F88E50E948D37402F6B
:10390000612F0E94167381110C94052E0C940A2EBF
:1039100081E02230310509F080E00E94C8730C94E8
:10392000052E80E50E94D637882329F00E9416379D
:103930006B017C0103C0C12CD12C760183E50E9470
:10394000D637882361F00E945A3720E030E04AE7FA
:1039500054E40F94F8090F94AC0F6B017C010E94A2
:1039600029588091F20A811105C060E089ED93E049
:103970000E94635D0E94CBF7C60ED71EE81EF91E9B
:103980000E94CBF7DC01CB018C199D09AE09BF0960
:10399000B7FD02C00C94052E0E94DABDF1CF41E0C4
:1039A00061E081E00E94167381110C94052E19824A
:1039B0001A821B821C8280E090E0A5E7B3E48D832D
:1039C0009E83AF83B88780E090E0A0E2B1E489876E
:1039D0009A87AB87BC8780E50E94D637882319F089
:1039E0000E94263701C060E080E090E0A8ECB2E4DD
:1039F00088A799A7AAA7BBA780E090E0A0EAB0E4B7
:103A00008CA39DA3AEA3BFA3613019F0623039F03F
:103A100029C0BE016C5D7F4FCE01099644C0298547
:103A20003A854B855C856091E90A7091EA0A80913C
:103A3000EB0A9091EC0A0F94390E6B017C0120E0A7
:103A400030E04AE253E40F94920987FD06C0C12C8E
:103A5000D12C1AE2E12E13E4F12EC8A2D9A2EAA2D7
:103A6000FBA21CC0E090E90AF090EA0A0091EB0A80
:103A70001091EC0AA984BA84CB84DC849501A60158
:103A8000B701C8010F94920987FF02C07501860132
:103A9000C701D80188A399A3AAA3BBA3BE016C5DEB
:103AA0007F4FCE0180960E94B879AE01485D5F4F8E
:103AB000BE016B5F7F4FCE0101960E9496790C94F8
:103AC000052E8091D00A8770873011F00C940F2E4C
:103AD0008FE40E94D637882319F00E944A3703C02A
:103AE0008FE40E948D3781110C94052E0C940F2EBB
:103AF0000E94C29B0C94052EC090E10AD090E20A6D
:103B0000E090E30AF090E40A88E50E94D63781113C
:103B100009C020E030E044E152E4C701B6010F944F
:103B2000380E02C00E945A3768A379A38AA39BA3C8
:103B3000C090E50AD090E60AE090E70AF090E80A23
:103B400089E50E94D637811108C020E030E0A90144
:103B5000C701B6010F94390E02C00E945A379B016B
:103B6000AC0169837A838B839C8368A179A18AA144
:103B70009BA10E94DFBC882311F40C94052E80E0E9
:103B80000E9451710E94777985E40E94D63788237C
:103B900021F00E944A37182F04C085E40E948D3717
:103BA00011E086E50E94D637882321F00E9426374F
:103BB000262F01C021E0412FBE016F5F7F4FCE0154
:103BC00080960E9474A46B017C019B01AC010F9450
:103BD0002B1181115FC088A099A0AAA0BBA020E0F2
:103BE00030E0A901C501B4010F94920987FF05C017
:103BF00027E137EB41E558EB04C027E137EB41E51E
:103C000058E3C501B4010F94390EAB01BC0189E042
:103C100094E00E94DBD589809A80AB80BC8020E054
:103C200030E0A901C501B4010F94920987FF05C0D6
:103C300027E137EB41E558EB04C027E137EB41E5DD
:103C400058E3C501B4010F94390EAB01BC0184E007
:103C500094E00E94DBD520E030E0A901C701B60165
:103C60000F94920987FF05C027E137EB41E558EB38
:103C700004C027E137EB41E558E3C701B6010F94D3
:103C8000390EAB01BC018FEF93E00E94DBD58AE0D7
:103C90000E94F3370E945E79113011F40E947A9BE2
:103CA0000E9418930C94052E41E061E081E00E948F
:103CB000167381110C94052E80916D02882311F4E6
:103CC0000C94052E89E40E94D637182F882321F002
:103CD0000E942637E62E01C0E12C8AE40E94D637E6
:103CE000F82E882321F00E942637062F01C000E01D
:103CF000112319F093E09E1520F0FF2081F004308D
:103D000070F0E1E1F4E084918F010F5F1F4F882391
:103D100011F40C94052E0E94F337F801F4CF0E94A1
:103D2000E9371123F1F02091460E3091470E4E2DC8
:103D30004203B001439F700D11248091410E909178
:103D4000420E680F791F072E000C880B990B0F94F9
:103D500099096093880E7093890E80938A0E9093D0
:103D60008B0EFF20E9F02091480E3091490E02039E
:103D7000B001039F700D11248091430E9091440E69
:103D8000680F791F072E000C880B990B0F94990967
:103D900060938C0E70938D0E80938E0E90938F0E89
:103DA00080E50E94D6378823E9F00E944A378823AD
:103DB000E9F01123D9F020E030E044E152E46091D1
:103DC000880E7091890E80918A0E90918B0E0F94BF
:103DD000390E6093880E7093890E80938A0E9093AB
:103DE0008B0E04C080E50E948D37E1CF86E40E94EF
:103DF000D6378823D9F00E945A376B017C0120E026
:103E000030E0A9010F949910181684F420E030E0F6
:103E100040E752E4C701B6010F94330F60934202AA
:103E20007093430280934402909345020E94E1C044
:103E30000C94052E409385030C94052EEEE62E2E51
:103E4000E2E03E2EFCE7EF2EFEE0FF2E81EE9AE050
:103E50009DA78CA7A1EDCA2EAAE0DA2E00E010E003
:103E6000D1018D911D010E94D637882309F44BC0E2
:103E70000E945A372B013C01133049F0F601208192
:103E80003181428153810F94380E2B013C01ACA546
:103E9000BDA52D913D914D915C91C301B2010F944F
:103EA000380E4B015C012DEB37E346E855EB0F94E0
:103EB000991087FD0AC02DEB37E346E855E3C501AD
:103EC000B4010F9492091816F4F4133051F440928F
:103ED000ED0A5092EE0A6092EF0A7092F00A01E049
:103EE00012C0A5019401F7016081718182819381E3
:103EF0000F94390ED7016D937D938D939C931397F7
:103F0000812F0E940F361F5FB4E0EB0EF11CECA571
:103F1000FDA53496FDA7ECA7F4E0CF0ED11C14301C
:103F200009F09ECF002309F458C0C090ED0AD0904C
:103F3000EE0AE090EF0AF090F00A20E030E0A901EC
:103F4000C701B6010F94390E2091100F3091110F57
:103F50004091120F5091130F0F94F8090F94A6106F
:103F600060936705709368058093690590936A056F
:103F7000C0925705D0925805E0925905F0925A0523
:103F80009091350580913605981719F00E94CB570E
:103F900024C00E94295880916F00982F927081FF51
:103FA00005C080916F008D7F80936F004091670501
:103FB000509168056091690570916A0540930617F4
:103FC000509307176093081770930917992329F0E6
:103FD00080916F00826080936F000E9418930C9410
:103FE000052E0E9429A70C94052E809115169091FC
:103FF00016168637910509F47EC70CF0C7C08C34BD
:10400000910509F486C40CF058C08931910509F472
:10401000B3C21CF58431910509F4C0C17CF481312F
:10402000910509F435C22CF4029708F4BAC10C9436
:10403000B42D429709F4E2C50C94B42D8631910554
:1040400009F473C20CF46DC28731910509F473C28F
:10405000489709F486C20C94B42D8E31910509F469
:1040600041C384F48B31910509F49AC20CF48AC2DD
:104070008C31910509F42CC34D9711F40C94052E45
:104080000C94B42D8A32910509F432C44CF48F316A
:10409000910509F477C3809709F428C30C94B42DD3
:1040A0008934910509F428C48B34910511F00C94DE
:1040B000B42D0E94FBFB0C94052E8A36910509F461
:1040C0004CC5B4F58435910509F498C5E4F48135FF
:1040D000910509F472C54CF48D34910511F00C94DE
:1040E000B42D0E9434FC0C94052E8235910509F400
:1040F00081C58335910511F00C94B42D81E0809336
:1041000084030C94052E8C35910509F4C5C534F44F
:104110008535910509F4A5C50C94B42D8836910513
:1041200009F4FBC38936910509F4AFC40C94B42D8E
:104130008F36910509F421C484F48C36910509F475
:104140006FC40CF428C58D36910509F4E0C48E3691
:10415000910509F4FFC30C94B42D8237910509F43D
:1041600023C654F48037910509F45EC48137910564
:1041700009F45EC40C94B42D8337910509F40BC186
:104180008537910509F4A8C60C94B42D8E3221E030
:10419000920711F40C94162B0CF071C08C3C910515
:1041A00009F4B2C784F58139910509F4FEC684F497
:1041B0008837910509F4EEC60CF4E9C689379105F4
:1041C00009F4EEC68C38910509F4A5C40C94B42DFD
:1041D0008E3B910509F4BDC434F48B39910509F483
:1041E0006FC40C94B42D893C910509F456C78B3CDF
:1041F000910511F00C94B42D0EE6E02E02E0F02EA5
:1042000009E814E071C78D3D910511F40C94AB29B8
:10421000A4F48E3C910511F40C94782914F40C94B8
:10422000F928833D910511F40C949B298C3D91054F
:1042300011F40C949E290C94B42D8232B1E09B07AA
:1042400011F40C94E22A64F4823E910511F40C946A
:104250000E2A8831914011F40C94372A0C94B42D15
:104260008C3221E0920711F40C94ED2A8D329140AA
:1042700011F00C94B42D0E9460910C94052E843F93
:10428000A1E09A0711F40C94A12C0CF043C08139E1
:10429000E1E09E0711F40C94002CBCF4803321E083
:1042A000920711F40C946D2B14F40C946A2B833642
:1042B000A1E09A0709F46BC08039914011F00C9489
:1042C000B42D0E9429580C94052E843AE1E09E07F3
:1042D00011F40C940E2C7CF4823921E0920711F435
:1042E0000C94062C8A39914011F00C94B42D0E9444
:1042F000C78B0C94052E853AA1E09A0711F40C9413
:10430000112C8C3A914011F00C94B42D0E94E29340
:104310000C94052E8C30E2E09E0711F40C94DA2CFC
:10432000B4F4863F21E0920711F40C94A72C14F406
:104330000C94A42C873FA1E09A0711F40C94AA2CAA
:10434000883F914011F40C94B62C0C94B42D8B380A
:10435000E3E09E0711F40C94052E6CF4833523E002
:10436000920711F40C94E22C8438934011F40C94CD
:10437000472D0C94B42D803AA3E09A0709F4F5C1B7
:10438000873E934011F40C949F2D0C94B42DEDEEC8
:10439000FDE10C94ED2BEDE0F6E043C5EBE5F4E038
:1043A00082C0A0901316B090141680E50E94D637F4
:1043B000882359F00E9416376B017C0111E0672BAE
:1043C000682B692B31F410E004C010E0C12CD12C13
:1043D000760183E50E94D637882311F40C94DB2FF5
:1043E0000E945A3720E030E04AE754E40F94F8097D
:1043F0000F94AC0F6B017C0111110BC0672B682B64
:10440000692B39F4A114B10421F0F50180818111E7
:1044100002C010E001C011E00E942958112329F0C8
:1044200061E0C5010E949F5D05C060E080E394E00B
:104430000E94635D83E080936E0E81E08093BC04F4
:10444000C114D104E104F104B1F00E94CBF7C60E0F
:10445000D71EE81EF91E0E94CBF7DC01CB018C1998
:104460009D09AE09BF09B7FF0DC08091BC04811141
:104470000C94E02F07C08091BC04882319F00E949F
:10448000DABDF9CF0E944C7C1092BC040C94052E2E
:1044900060E083E494E00E94635D42981798159869
:1044A0002E980C94052E84918F010F5F1F4F882347
:1044B00021F00E94F337F801F6CF1092A00883E5AF
:1044C00096E00E9440C78BE1E3E5F6E0DE01159639
:1044D00001900D928A95E1F78091510690915206D4
:1044E0009C838B838CE892E09A83898340E050E040
:1044F000BE016F5F7F4F80E090E00E945F6ACE0157
:1045000001960E9458BDECE4F4E084918F010F5FA6
:104510001F4F882311F40C94052E0E94F337F801E5
:10452000F4CF0E9445A20C94052E1092FB05109228
:10453000FC050C94052EE0911316F0911416808161
:10454000882329F0803209F410823196F8CF40E0B8
:1045500061E080911316909114160E94246D0C94C2
:10456000052E8091FC05882319F081E08093FB05DE
:104570000E94FBFB0C94052E1092FB050E941FFC71
:104580000C94052E8091FC05882311F40C94052EC3
:1045900083E50E94D63781110C94E42F0C94052EEC
:1045A00083E40E948D37882309F450C0E9E9F4E0E0
:1045B00084918F010F5F1F4F882321F00E94F337F2
:1045C000F801F6CF8091EE07811103C0ECE6F4E02C
:1045D00012C0BE016F5F7F4F8BEE97E00E9407C64F
:1045E0008E010F5F1F4FD8018D918D01882349F1F6
:1045F0000E94F337F8CF84918F010F5F1F4F8823FC
:1046000001F10E94F337F801F6CF61EFC62E64E0A6
:10461000D62EE12CF12C20E08091A60490E00E2C07
:1046200002C0959587950A94E2F780FDD6C14FEFB9
:10463000E41AF40A82E0C80ED11C95E0E916F104F0
:1046400059F78AE00E94F3370C94052E8091FC05FF
:10465000882339F08091FB05882319F0E6E7F4E020
:1046600003C0E8E8F4E028C084918F010F5F1F4F7A
:10467000882321F00E94F337F801F6CF60919C085F
:1046800070919D0880919E0890919F084AE00E9439
:10469000ED3A8FE20E94F337609198087091990883
:1046A00080919A0890919B084AE00E94ED3A8AE036
:1046B0000E94F3370C94052E84918F010F5F1F4FDA
:1046C000882311F40C94052E0E94F337F801F4CFDF
:1046D00040E060E080911316909114160E94246DC2
:1046E0000C94052E0E9444A00C94052E8091FB058D
:1046F00081110E9429588091FC05882311F40C94A3
:10470000052E80E50E94D637882319F00E944A378B
:1047100003C080E50E948D37182F482F61E08091FB
:104720001316909114160E94246D83E50E94D637CB
:10473000882381F00E942637AB01BC0140939C087E
:1047400050939D0860939E0870939F088BEE97E0AE
:104750000E94F8C48091FC05882319F081E08093C1
:10476000FB0511110C94052E03CF80911316909127
:10477000141621E02093FA0540E060E00E94246DC9
:104780000C94052E0E94ACFB7B018C0120E831E5E6
:1047900041E050E00F94990DC9016DE671E00F946E
:1047A000080E4B015C01C801B70120E13EE040E08A
:1047B00050E00F94990DCA01B90128E130E040E0C2
:1047C00050E00F94990D762E672EC62ED72E7CE3DF
:1047D000272E312C412C512CC801B701A201910187
:1047E0000F94990DF62EE72ECA01B901A20191018D
:1047F0000F94990DCB018E010F5F1F4F811491040F
:1048000099F0EF92FF927F936F936F927F92BF9296
:10481000AF929F928F9280ED94E09F938F931F931E
:104820000F930F942A0913C0A114B104B1F0EF92B1
:10483000FF927F936F936F927F92BF92AF9280ECC3
:1048400094E09F938F931F930F930F942A090FB6B1
:10485000F894DEBF0FBECDBF30C0CD2879F0EF9207
:10486000FF927F936F936F927F9284EB94E09F937C
:104870008F931F930F930F942A09E9CF892B69F027
:10488000EF92FF927F936F938CEA94E09F938F93C4
:104890001F930F930F942A09DACFEF92FF9288EAC1
:1048A00094E09F938F931F930F930F942A090F9077
:1048B0000F900F900F900F900F9060E0C8010E9432
:1048C0009F5DECE1FEE184917F012FEFE21AF20A95
:1048D000882321F00E94F337F701F5CFB80184EE69
:1048E00094E00E9411D68AE00E94F3370C94052EC2
:1048F0000E946E9A0C94052E8091FB0581110C94F8
:10490000052E80E50E948D3781110C94F52F0C94B3
:10491000052E0E941FFC0C94052E88E690E00E9454
:104920005A3B81110C94052E8091A60483FF02C08E
:104930000C94052E83E50E94D637882339F00E9417
:104940005A370F94A50FCB010E94D0D10E942FD7C8
:104950000C94052E8EE40E94D637882311F40C9413
:10496000052E0E9426376093EE047093EF04809327
:10497000F0049093F1040C94052E83E50E948D378A
:10498000882359F083E50E94D637882319F00E94C6
:10499000363701C080E08093A604ECE1FEE184910B
:1049A0008F010F5F1F4F811103C0EFEFF4E004C0D0
:1049B0000E94F337F801F3CF84918F010F5F1F4FEF
:1049C000882321F00E94F337F801F6CF8091A604E6
:1049D00081111BCEEBEFF4E018C0BB24B394B20EF0
:1049E000222319F08CE20E94F337F601859194910D
:1049F000FC0184918F010F5F1F4F882321F00E94DB
:104A0000F337F801F6CF2B2D12CE84918F010F5F73
:104A10001F4F882309F415CE0E94F337F801F5CF14
:104A2000109223020C94052E86E095E00E9474BD3E
:104A300083E50E94D637811103C0ECE1FEE10DC091
:104A40000E9436378D3320F4809354020C94052E47
:104A50008CE3809354020C94052E84918F010F5F98
:104A60001F4F882321F00E94F337F801F6CF4091C1
:104A7000540250E060E070E08FE095E00E94BED507
:104A80008AE00E94F3370C94052E89E690E00E949C
:104A90005A3B811111C0E6E1F5E084918F010F5F6F
:104AA0001F4F882321F00E94F337F801F6CF0E94B0
:104AB000DDCD8AE00E94F33710926E0E0C94D33055
:104AC00083E50E94D637882311F40C94052E0E94AA
:104AD0003637182F8D3308F01CE310937B0E0E949D
:104AE000CBF76B017C01212F30E0A8EEB3E00F94EF
:104AF000ED0DC60ED71EE81EF91EC092770ED0929D
:104B0000780EE092790EF0927A0E0C94052E0E94A7
:104B100077980C94052E8091A60483FF02C00C9414
:104B2000052E83E50E94D637882311F40C94052EB8
:104B30000E945A370F94A50F6738710514F067E883
:104B400070E07093B60A6093B50A0E9438D10C9455
:104B5000052E0E94AA960C94052E80E50E94D63759
:104B6000811106C083E50E94D637882361F006C014
:104B70000E94363781110C94052EF4CF0E942637FF
:104B80006F3F710510F06FEF70E07093530A609300
:104B9000520A0C94052E80E50E94D637811106C07A
:104BA0001092530A1092520A0C94052E0E94263736
:104BB000672B11F00C94052EF3CF0E94E1D10E94D7
:104BC00030ED1092530A1092520A10928003109204
:104BD0007F0310927E0368EE73E080E090E00E9415
:104BE000735C0E944F3660E089E195E00E94635D4E
:104BF0000C94052E109284030C94052E83E50E94DC
:104C0000D6378823A1F00E945A3720E030E04AE7E7
:104C100054E40F94F8090F94AC0F6093550270930D
:104C2000560280935702909358020C94052E88E503
:104C30000E948D3781110C94003089E50E948D37D8
:104C400081110C9400308AE50E948D3781110C94FB
:104C5000003085E40E948D3781110C9400300C9453
:104C60002B3083E50E948D37882311F40C94052E98
:104C70000E945A3720E030E04AE754E40F94F809E4
:104C80000F94AC0F6093730E7093740E8093750E37
:104C90009093760E0C94052E4EE6C42E42E0D42E50
:104CA00054E0E52E5FE0F52E10E0D6018D916D0108
:104CB0000E948D37882309F46DC0133009F063C05A
:104CC0000E945A374B015C0120E030E040EA51E499
:104CD0000F94920987FF4EC0A50194016091100FB7
:104CE0007091110F8091120F9091130F0F94330F49
:104CF0002B013C019B01AC016091790470917A0415
:104D000080917B0490917C040F94F809609379045E
:104D100070937A0480937B0490937C04A3019201A6
:104D200060919504709196048091970490919804F5
:104D30000F94F809609395047093960480939704F8
:104D4000909398046091F00E7091F10E8091F20EA4
:104D50009091F30E0F949709A30192010F94F80913
:104D60000F94AC0F6093F00E7093F10E8093F20EDF
:104D70009093F30E8092100F9092110FA092120F49
:104D8000B092130F07C00E945A37F70160837183F6
:104D9000828393831F5FF4E0EF0EF11C143009F05F
:104DA00084CF0E94D0D831C70E94295883E50E9441
:104DB000D637882309F411C90E942637623071055D
:104DC00009F00BC90E94C1C48BE50E94F3376091C2
:104DD000620E7091630E8091640E9091650E42E0B8
:104DE0000E94B83B4091660E5091670E6091680E2C
:104DF0007091690E8BE295E00E94DBD540916A0EBE
:104E000050916B0E60916C0E70916D0E88E295E082
:104E10000E94DBD58DE50E94F3378AE00E94F337CC
:104E2000F4C684918F010F5F1F4F882321F00E94E9
:104E3000F337F801F6CF60E08DEF95E00E94E19244
:104E400061E086EF95E00E94E19260E08BEE95E0F4
:104E50000E94E19261E08BED95E00E94E19260E0BA
:104E600082ED95E00E94E19261E088EC95E00E947D
:104E7000E19261E08EEB95E00E94E19261E086EBC9
:104E800095E00E94E19261E088EA95E00E94E1925B
:104E900061E08AE995E00E94E19260E08BE895E0AC
:104EA0000E94E19260E08DE795E00E94E19260E06F
:104EB00087E695E00E94E19260E086E595E00E9439
:104EC000E19260E081E495E00E94E19261E08EE28F
:104ED00095E00E94E19299C6809113169091141664
:104EE000DC012C91222321F060E00E949F5D8DC6A1
:104EF0000E944C7C8AC6009113161091141683E010
:104F0000D12C40E08150E1F0F8019081292F2B7FD6
:104F10002134C1F721812133A9F7913421F095344F
:104F200021F441E002C0DD24D39498012E5F3F4F6D
:104F300089012F5F3F4FD8019C919032C9F3E2CF96
:104F4000442369F0ECE1FEE184917F01BFEFEB1AAD
:104F5000FB0A882321F00E94F337F701F5CFDD200B
:104F600069F0E5EDF6E084917F012FEFE21AF20A95
:104F7000882321F00E94F337F701F5CFD8018D91F6
:104F80008D01882309F45DCB0E94F337F7CF0E948F
:104F90003BF13BC681E08093BC088093BB0835C6DB
:104FA0001092BC081092BB0830C683E50E94D63729
:104FB000882319F00E94263702C060E070E08B0160
:104FC000112702301105D4F0EDEEFDE184918F013F
:104FD0000F5F1F4F811103C0E9EDF6E004C00E948E
:104FE000F337F801F3CF84918F010F5F1F4F8823B0
:104FF00009F40BC60E94F337F801F5CF88E40E944C
:10500000D6378823A9F00E942637643B71053CF00F
:105010006530B1E07B072CF064E071E002C064EB26
:1050200070E0F801EE0FFF1FE855FA4E71836083C0
:1050300086E40E94D6378823A9F00E942637F8011B
:10504000EE0FFF1FE056FA4E718360836F3F7105CC
:1050500019F014F06FEF70E077FF02C060E070E0CD
:105060007183608382E40E94D637882309F4CDC51A
:105070000E9426376530710534F0683871052CF0D0
:1050800067E870E002C065E070E0000F111FF801F2
:10509000EC55FA4E71836083B8C58EE6E82E82E047
:1050A000F82E04EF1EE0F70181917F010E948D37F9
:1050B000882351F00E945A370F94AC0FD8016D939A
:1050C0007D938D939C9313970C5F1F4FBFE004302B
:1050D0001B0749F70E945FD798C50C5F1F4FB4E0CC
:1050E00009391B0709F491C5F70181917F010E94DD
:1050F0008D37882391F30E945A37D8016D937D93A1
:105100008D939C931397E9CF83E50E94D63788232C
:10511000A1F00E945A3760938104709382048093B7
:1051200083049093840460937D0470937E04809341
:105130007F049093800410E001C011E080E50E949C
:10514000D637882359F00E945A37609381047093B0
:105150008204809383049093840410E082E50E948B
:10516000D637882359F00E945A376093850470938C
:105170008604809387049093880410E084E50E945D
:10518000D637882359F00E945A3760937D04709374
:105190007E0480937F049093800437C5112309F423
:1051A00034C54091810450918204609183047091D0
:1051B000840481E097E00E94DBD540918504509102
:1051C000860460918704709188048EEF96E00E94B7
:1051D000DBD540917D0450917E0460917F047091F5
:1051E00080048BEF96E00E94DBD58AE00E94F337C3
:1051F0000CC581E50E948D37882351F00E94163737
:105200006093990470939A0480939B0490939C04F8
:1052100083E50E948D37882351F00E945A376093AE
:10522000A1047093A2048093A3049093A40484E542
:105230000E948D37882351F00E945A3760939D0455
:1052400070939E0480939F049093A00488E50E942D
:105250008D37882351F00E945A3760936D04709304
:105260006E0480936F049093700489E50E948D37DB
:10527000882351F00E945A3760937104709372042E
:1052800080937304909374048AE50E948D37882379
:10529000F1F00E945A3760937504709376048093FE
:1052A0007704909378042DEC3CEC4CEC5DE30F9488
:1052B0009209181664F0E1E1F7E084918F010F5F25
:1052C0001F4F882321F00E94F337F801F6CF85E4C1
:1052D0000E948D37882309F498C40E945A3760933E
:1052E000790470937A0480937B0490937C048DC43A
:1052F000BEE6CB2EB2E0DB2E1EEBE12E18E0F12E47
:1053000010E0F60181916F010E948D37882359F0DA
:105310000E945A37D7016D937D938D939C93139779
:10532000812F0E940F361F5FB4E0EB0EF11C13308B
:1053300041F70C94ED1F0E94039267C483E50E941D
:10534000D637882309F461C40E94263770931B0264
:1053500060931A025AC48DED90E00E945A3B81116D
:1053600054C483E50E94D637811103C0ECE1FEE10D
:105370002FC00091C20E10E00E942637000F111FAF
:10538000F801E85EFD4F718360838091C20E90E06A
:105390008C01000F111F000F111F0C5E1D4F880F95
:1053A000991FFC01E85EFD4F60817181072E000CA2
:1053B000880B990B0F9499092AE037ED43E25CE3DF
:1053C0000F94F809F80160837183828393831DC46D
:1053D00084918F010F5F1F4F882321F00E94F337C4
:1053E000F801F6CF85E40E94F3378091C20E805D0C
:1053F0000E94F337E091C20EF0E0EE0FFF1FE85E6F
:10540000FD4F6081718183E497E00E94F8D585E2C9
:105410000E94F3378AE00E94F337F7C380E50E94C9
:105420008D37882309F4F1C30E9426376B017C0174
:1054300083E50E94D637882321F00E9426378B010E
:1054400002C00FEF1FEFC8010196039708F0DDC3FC
:10545000D7FCDBC38C2DEBE4F7E09491891709F4BA
:10546000FDC5319627E0E837F207B9F7FAC580E5C0
:105470000E948D37882309F4C8C30E9426376B0128
:105480007C018B01672B19F0EDEEFDE17FC083E518
:105490000E948D37811103C0ECE1FEE107C00E943C
:1054A000263788ED95E00E9486D4AFC384917F01B2
:1054B0004FEFE41AF40A882321F00E94F337F70132
:1054C000F5CF60E070E081E997E00E94F8D5809127
:1054D000DA0528E532E06901C81AD10887FDD394BE
:1054E000CC0CDD1CCC0CDD1C0D2C000CEE08FF08D8
:1054F0008091D90528E830E04901881A910887FD94
:105500009394880C991C880C991C092C000CAA08EF
:10551000BB088091D8058F3FB9F090E0FC01EE0FF9
:10552000FF1F8E0F9F1FFC01E559FA4F0181128169
:1055300033E0000F111F3A95E1F744E01695079507
:105540004A95E1F70E5F1F4F98012F5F3F4FC9014A
:10555000330FAA0BBB0B9C01AD01281939094A096D
:105560005B09A4EBB0E00F94DA0DA70196012819AE
:1055700039094A095B090F94BB0DB9018EE897E020
:105580000E94F8D58AE00E94F3373FC384918F01CF
:105590000F5F1F4F882321F00E94F337F801F6CFE9
:1055A000B60187E897E00E94F8D5E8E7F7E0849134
:1055B0008F010F5F1F4F882309F427C30E94F33721
:1055C000F801F5CF8AE50E94D637811172C583E5CF
:1055D0000E94D63781116DC518C383E50E94D63766
:1055E000882319F00E94263702C064E071E079A395
:1055F00068A380E50E94D637882339F00E942637B9
:10560000693883E1780730F402C068EE73E07A838A
:10561000698304C088E893E19A838983BE01605E50
:105620007F4FCE0101960E9489A3EFC283E50E94BD
:105630008D37182F882371F00E945A370F94A50FC9
:10564000709312026093110221E0672B09F020E0B1
:105650002093A50480E50E948D37882359F020917E
:10566000110230911202232B11F00E944A378093CD
:10567000A504CBC21111C9C2ECE1FEE184918F01F6
:105680000F5F1F4F882321F00E94F337F801F6CFF8
:105690008091A504882319F068E373E002C06BE3EE
:1056A00073E08FEB97E00E9411D660911102709128
:1056B00012028EEA97E00E94F8D5EAEAF7E08491B8
:1056C0008F010F5F1F4F882309F49FC20E94F33799
:1056D000F801F5CF0E94048C98C280E50E948D37B6
:1056E000882351F00E945A37609312177093131752
:1056F000809314179093151789E40E948D3788239F
:1057000081F00E945A372CEA35EC47E25EE30F94B1
:10571000F80960930E1770930F17809310179093EA
:10572000111784E40E948D37882381F00E945A3734
:105730002CEA35EC47E25EE30F94330F60930A17CF
:1057400070930B1780930C1790930D17ECE1FEE10B
:1057500084918F010F5F1F4F882321F00E94F33740
:10576000F801F6CF4091121750911317609114175A
:10577000709115178AED97E00E94DBD52CEA35EC85
:1057800047E25EE360910E1770910F17809110173A
:10579000909111170F94330FAB01BC0186ED97E088
:1057A0000E94DBD52CEA35EC47E25EE360910A17F4
:1057B00070910B1780910C1790910D170F94F809A9
:1057C000AB01BC0182ED97E00E94DBD58AE00E942C
:1057D000F3371BC20E94F337F80184918F010F5FEA
:1057E0001F4F8111F7CFEEEDF7E084918F010F5F2E
:1057F0001F4F882309F409C20E94F337F801F5CF3F
:1058000081E00E94357A0E941893FFC180E00E94D7
:10581000357A0E947A9B0E941893F7C10E94EB94FC
:10582000F4C189E40E94D637882321F00E942637EC
:10583000062F01C00FEF8AE40E94D637882321F09B
:105840000E942637162F01C01FEF8AE50E948D3770
:10585000F82E811105C081E50E948D37D82E01C038
:10586000D12C07FD06C017FD04C0F1101CC0D110DB
:105870001AC0EDEEFDE184918F010F5F1F4F811182
:1058800003C0ECE0F8E004C00E94F337F801F3CF66
:1058900084918F010F5F1F4F882309F4B6C10E94C6
:1058A000F337F801F5CF043010F41430D0F0EDEEFA
:1058B000FDE184918F010F5F1F4F811103C0EDEE59
:1058C000F7E004C00E94F337F801F3CF84918F0111
:1058D0000F5F1F4F882309F498C10E94F337F80126
:1058E000F5CFE02E000FFF08012F110F110B0E94C2
:1058F0005A37EE0CFF1CEE0CFF1CDD2071F0F70197
:10590000E00FF11FEE0FFF1FEE0FFF1FE455FA4EE1
:10591000208131814281538103C020E030E0A90120
:105920000E0D1F1D000F111F000F111F04551A4EE1
:105930000F94390ED8016D937D938D939C9313979B
:1059400064C10E94C3AE61C10E943EDF5EC10E947D
:10595000F3DD5BC183E50E948D37882321F00E942F
:105960004A3791E089270E9443D94FC181E0809353
:105970009B150E9403A910929B15882309F445C129
:10598000ECE1FEE184918F010F5F1F4F811103C095
:10599000ECE2F8E004C00E94F337F801F3CF849101
:1059A0008F010F5F1F4F882309F42FC10E94F33727
:1059B000F801F5CF8091FB05882309F426C14093B7
:1059C000FE0523C18AE50E94D637811103C0ECE1B0
:1059D000FEE13BC00E945A376B017C0120E030E0C1
:1059E00040EA51EC0F94991087FD0AC020E030E0A6
:1059F00040EA51E4C701B6010F94920918161CF44D
:105A0000EDEEFDE10CC0C092DD0AD092DE0AE0921C
:105A1000DF0AF092E00AF9C00E94F337F80184919E
:105A20008F010F5F1F4F8111F7CFE7E3F8E08491FB
:105A30008F010F5F1F4F882309F4E7C00E94F337DF
:105A4000F801F5CF0E94F337F80184918F010F5FC1
:105A50001F4F8111F7CFE7E5F8E084918F010F5FC9
:105A60001F4F882321F00E94F337F801F6CF4091B1
:105A7000DD0A5091DE0A6091DF0A7091E00A84E548
:105A800098E00E94DBD58AE00E94F337BEC08BE429
:105A90000E94D637811103C0ECE1FEE136C08BE4F1
:105AA0000E94D6378823C1F00E945A376B017C01CF
:105AB00020E030E0A9010F94991087FD0AC020E092
:105AC00030E040E251E4C701B6010F949209181684
:105AD00034F4E6E6F8E00EC0C12CD12C76010E9429
